:100000000C94733C18951895189518951895189593
:100010001895189518951895189518951895189578
:100020001895189518951895189518951895189568
:100030001895189518951895189518951895189558
:1000400018951895189518950C9402080C94B708F3
:100050001895189518951895189518951895189538
:10006000189518950C94A813189518951895189527
:10007000189518950C943B3C18951895189518955B
:100080001895189518951895189518951895189508
:1000900018951895080D330435040C0D100D0E0D30
:1000A0000F0D0D0D34040A0D0B0D110D360438041F
:1000B000150D190D170D180D160D3704130D140D10
:1000C0001000019D01F100010701070A010F0D0158
:1000D000011501FE01E81801FE02001B01011E01CD
:1000E000012101012401FE01FD2701012A01012D49
:1000F00001013001FE01FD3301013B01014301011A
:100100004B01FE01FD5301015601015901015C0142
:10011000FE05FD5F01016701016A01016D010170CA
:10012000010C73010176010F7901FE04E07C01FEF0
:1001300003007F01FE01008201FE07008501FE042D
:10014000008801108B01018E01019101FFFE9401D5
:10015000019701019A01FB000101F515FC14010151
:1001600015010B15011015011515011A15010615BC
:10017000011F1501241501BF1501C71501291575AA
:100180004B1501CF15022E15013215013615013A16
:1001900015033E1506B71508861502F515036A15F1
:1001A000017815FB0F3949F4F9010081002329F08A
:1001B00000E310E029E036E0089500E010E020E0E0
:1001C00030E008950E94973DD901CA0120E030E057
:1001D000FC0120833183E0ECF0E0FBBFF0E00C9405
:1001E0002B3D00E010E040E050E060E070E04D9317
:1001F0005D936D937C9345E050E00E94933C9801A1
:1002000001E21AE0020F131FE4E00C94A83D01E0A4
:1002100010E0E9CF02E010E0E6CF03E010E02FE2CB
:100220003DE0FC0120833183DECF04E010E0DBCF32
:1002300005E010E0D8CF06E010E0D5CF07E010E0F1
:10024000D2CF08E010E0CFCF09E010E0CCCF0AE039
:1002500010E0C9CF0BE010E0C6CF0CE010E0C3CF38
:100260000DE010E0C0CF0EE010E02EED3DE0FC010F
:1002700020833183B8CF0FE010E02FEE3DE0FC018A
:1002800020833183B0CF00E110E020E03EE0FC01AC
:1002900020833183A8CF01E110E021E13EE0FC01A1
:1002A00020833183A0CF02E110E09DCF03E110E075
:1002B0009ACF04E110E097CF05E110E094CF06E17A
:1002C00010E02DE93EE0FC01208331838CCF07E173
:1002D00010E089CF08E110E086CF09E110E083CF7C
:1002E0000AE110E080CF0BE110E07DCF0CE110E0DF
:1002F0007ACF0DE110E077CF0EE110E074CF0FE17F
:1003000010E071CF00E210E06ECF01E210E06BCFA1
:1003100002E210E068CF03E210E065CF04E210E0F3
:1003200062CF05E210E05FCF06E210E05CCF07E2AB
:1003300010E059CF08E210E056CF00E010E022E0D4
:1003400036E00D931D932D933C9300E010E05CCFBD
:10035000219700E908830AE00093B80011E09E01AC
:100360000BE169D021960895239740918D0C50E0C0
:1003700060E070E001EA1EE00E945203002399F061
:10038000169A01EA1EE00E946D0313E09E0102E14D
:1003900070D0F89443E050E09E0109EB1CE00E940D
:1003A000DA3D7894169823960895229700918E0C42
:1003B00010E020E030E048EE53E060E070E00E94A2
:1003C000D33CA801B90105EA1EE00E9452030023B4
:1003D00081F1179A05EA1EE00E946D0312E09E016A
:1003E00000E06FD0088110E044E00E949B3C29812E
:1003F00022952F7030E0020F131F20E030E040EA1A
:1004000050E060E070E00E94D33C012F122F053FC6
:1004100021E012071CF004EF11E006C0043620E0D2
:10042000120714F404E610E00093A80C1093A90C32
:100430001798229608950E94973D2397B02FC901DF
:10044000A12F00E008838E0164D00EE10983BA83F6
:10045000AE0122E08E010F5F1F4F72D0AE012A2F36
:100460008C016ED08E0168D008812396E4E00C9454
:10047000A83D0E94973D2397B02FC901A12F00E00E
:1004800008838E0146D00EE10983BA83AE0122E0D3
:100490008E010F5F1F4F54D08E013BD00FE10983B7
:1004A000AE0121E08E010F5F1F4F4AD0AE012A2F0F
:1004B0008C0167D08E0140D008812396E4E00C9433
:1004C000A83D0E94973D2397B02FC901A12F00E0BE
:1004D00008838E011ED000E90983BA83AE0122E0B1
:1004E0008E010F5F1F4F2CD08E0113D001E90983BD
:1004F000AE0121E08E010F5F1F4F22D0AE012A2FE7
:100500008C013FD08E0118D008812396E4E00C9432
:10051000A83D30E024EA2093BC002091BC00422F8B
:1005200047FD05C0232F322F33952D33B0F3209193
:10053000B900F8012083089504E90093BC000895F0
:10054000BD01D80117C00C910093BB00119604E8BF
:100550000093BC0010E00091BC00302F37FD06C0B6
:10056000012F102F13950D33B0F320E00091B90047
:10057000FA010083022F202F2A95013020F7DB019A
:100580000895BD01D80117C004E80093BC0010E035
:100590000091BC00302F37FD06C0012F102F13959E
:1005A0000D33B0F320E00091BB000C931196009145
:1005B000B900FA010083022F202F2A95013030F074
:1005C000213010F304EC0093BC00E1CFDB0108956F
:1005D0009A938A93D0D26BD20E94C708002319F055
:1005E0000E94980902C00E94DF080E94840B0E94AA
:1005F000A8010E94E33B0E940A200AC005B7102F01
:1006000017FD06C005B7006805BF05B7006805BF40
:100610000E94940B0E94B4010E94D5010E941920EF
:100620000091A90E1091AA0EC80101968093A90EFF
:100630009093AA0E0D3D25E0120750F30CE41BE049
:100640000E943B36013049F4E6EBFCE00081118169
:100650000F5F1F4F00831183FDD000E112B11027FF
:1006600012B904E014B3102714BB00E010E00093AB
:10067000A90E1093AA0E0091010D023009F4BECF0D
:1006800005B7102F17FFC4CF05B70F7705BF05B704
:100690000F7705BFBDCF0EBD0DB5102F17FFFCCFD7
:1006A0000EB508950E94953D2801CA01DB010E9404
:1006B0005A12F2014081518162817381041B150B32
:1006C000260B370B80179107A207B30710F401E040
:1006D00001C000E0E6E00C94A63DBA93AA93D801CD
:1006E0000E945A120D931D932D933C93A991B99199
:1006F00008950895F801E65AFF4F2081222321F43E
:1007000021E00E949C3708952FE00E949C370895B5
:1007100024E00E949C3708959A938A93C80121E0AF
:100720008C010E949C378C010E941B1600E00E94E5
:10073000740B899199910895F801E65AFF4F408111
:10074000413039F4F9012581222319F425E00E9472
:100750009C3708959A938A93C801FC01E65AFF4F8B
:100760000081013069F4F9010581002349F422E098
:100770008C010E949C3720E137E28C010E94161602
:100780008991999108959A938A93C801FC01E65A38
:10079000FF4F0081013069F4F9010581002349F41C
:1007A00023E08C010E949C3720E137E28C010E94FB
:1007B000161689919991089524E00E949C37089516
:1007C0009A938A93C801FC01E65AFF4F00810130D9
:1007D00069F4F9010581002349F427E08C010E94A6
:1007E0009C3720E137E28C010E941616899199917D
:1007F0000895F801E65AFF4F4081413071F4F90144
:100800002581222321F428E00E949C37089528E0C6
:100810000E949C3701E00E94740B08958A93F801AE
:10082000E65AFF4F4081413099F4F9018681482F03
:100830004F70F80120813181F9012081421741F484
:1008400029E00E949C3782958F70082F0E947B0FB1
:10085000899108950091C10C013018F000E00093D7
:10086000C40C0091C10C013021F41ED00093C40CC3
:1008700017C00091C10C043021F48AD00093C40C3D
:100880000FC00091C10C083021F4F1D00093C40CCA
:1008900007C00091C10C002319F004E00093C40CC0
:1008A00000E00093C10C08950E94973DA0E2B0E0E3
:1008B00084E290E00FEF1FEF21E030E0AD01652F03
:1008C000660F660B762F041B150B260B370BEDEB13
:1008D000FCE040815181628173810417150726076E
:1008E000370710F402E051C00091AB0E10E020E099
:1008F00030E0EDEBFCE040815181628173810417AF
:1009000015072607370721F40091C20C0130E1F5E5
:1009100044E250E025EA30E005EC1CE00E94FB3D9B
:100920006A2F45EC5CE0EDEBFCE000811181228157
:1009300033810E947F0AEDEBFCE00081FC01EF5364
:10094000F34F0083EDEBFCE01181012FFC01EE532E
:10095000F34F0083EDEBFCE02281022FFC01ED530D
:10096000F34F0083EDEBFCE03381032FFC01EC53EC
:10097000F34F0083EDEBFCE000810093AB0E00E051
:100980000093C20C00E001C001E0E4E00C94A83D3B
:100990000E94953D04E2402E80E290E0A0E0B0E0AD
:1009A000EDEBFCE00081118122813381013E4FE0BB
:1009B000140740E0240740E0340710F002E054C080
:1009C0000091AB0E10E020E030E0EDEBFCE0408168
:1009D000518162817381041715072607370721F4B7
:1009E0000091C20C0130F9F544E250E025EA30E014
:1009F00005EC1CE00E94FB3DAC0125EC3CE0EDEB7E
:100A0000FCE00080118080010E94020BEDEBFCE015
:100A100000815524F201EF53F34F0083EDEBFCE02E
:100A20001181012F5524F201EE53F34F0083EDEBBA
:100A3000FCE02281022F5524F201ED53F34F008395
:100A4000EDEBFCE03381032F5524F201EC53F34F1F
:100A50000083EDEBFCE000810093AB0E00E000931F
:100A6000C20C00E001C001E0E6E00C94A63D8A93D0
:100A700080E0EDEBFCE000811181228133810030C8
:100A800040E1140740E0240740E0340710F082E022
:100A90000BC041E050E023EC3CE0EDEBFCE00080DB
:100AA000118080010E94E50A082F899108950E9413
:100AB000973D80E89EE3A0E0B0E083E391E0A0E012
:100AC000B0E08C019D01C801D90181509040A04047
:100AD000B040012B022B032BA1F7719A80E89EE313
:100AE000A0E0B0E0E0E0FFED31E03BBF0691009315
:100AF0008F0C00918F0C0A95033120F400918F0C1C
:100B000000933204209132040CE41BE00E948A38E6
:100B1000EEEFFFEF31E03BBF0691EDEFFFEF31E08D
:100B20003BBF169120E030E0E9E8F4E00083118358
:100B3000228333830091320410E020E030E0AC01E6
:100B4000BD010E94D33C4DE050E060E070E00E94A7
:100B5000FB3CC801D9018C019D01C801D90181501C
:100B60009040A040B040012B022B032BA1F77198BD
:100B7000E4E00C94A83DF89408E10093600000E0E4
:100B8000009360000FEF02B900E001B907EF05B96B
:100B900006E004B90FEF08B901EC07B908EB0BB98F
:100BA00000E20AB90FEF0EB900E00DB900EC01BB8D
:100BB00000E400BB0BE104BB04E003BB0FE30093C4
:100BC0007E0000E000937F0000E002B90FEF01B962
:100BD000699A719800E80093610001E00093610058
:100BE000789408950E94953DE797280100E00883D6
:100BF00000E010E020E030E00D831E832F83388773
:100C00000FEF1FEF0B831C830FE010E009831A83A3
:100C100080E02BC001E00A938E010F5F1F4F1A93F3
:100C20000A938E01085F1F4F1A930A9350E0BD018B
:100C300041E0282F30E020503C4E0CE41BE00E94A5
:100C400020164D915D916D917C911397FE0139961F
:100C5000082F10E0000F111F000F111FE00FF11FF0
:100C600040835183628373838395843098F2BE01FD
:100C7000675E7F4FE0EDFCE730E08B014EE150E036
:100C80000E94773D0CE41BE00E94813810E00B8F3E
:100C90001C8F09851A850D8F1E8F0D851E850F8F60
:100CA00018A309891A8909A31AA30D891E890BA300
:100CB0001CA3569855985E9A5D9A01E00093D8005F
:100CC00005EF401601E0500658F406E00093E200FC
:100CD00004E40093E30005E20093E40000E042C076
:100CE00000E085C01C811295107F110F2B81269585
:100CF00026952695120F1093F7001B811295107FF1
:100D0000110F1093F600FE017996202F30E0220F8C
:100D1000331FE20FF31F11811295107F110FFE0197
:100D20007996202F30E0220F331FE20FF31F20812E
:100D3000269526952695120F1093F300FE017996BD
:100D4000202F30E0220F331FE20FF31F1081129586
:100D5000107F110F1093F2001091EF001F7E10937F
:100D6000EF0003950F30A0F5102F1295107F109310
:100D7000ED00EEEEF0E003C010E01083319628EFB6
:100D800030E0E217F307C0F310E004C020E0209346
:100D9000FA0013951830D0F30D3018F71091EF00CA
:100DA000106C1093EF00013009F09CCF1A8112955E
:100DB000107F110F2981269526952695120F1093E5
:100DC000F70019811295107F110F1093F6009BCF39
:100DD00000EB0093DB000FE70093DF000FEF0093C1
:100DE000DE000091D80002600093D80001E0E79691
:100DF000E6E00C94A63D0091AD0E1091AE0E00936E
:100E0000EF0C1093F00C0091AF0E1091B00E009308
:100E1000ED0C1093EE0C0091B10E1091B20E0093F8
:100E2000EB0C1093EC0C0091B30E1091B40E0093E8
:100E3000F10C1093F20C0091EB0010E00093F50C14
:100E40001093F60C0091EA0010E00093F70C109359
:100E5000F80C2091F90C3091FA0C0091D80010E0B8
:100E60002017310711F001E001C000E00091D90026
:100E700010E0EFEFFCE020813181202B312B20832B
:100E800031830895F8940DE001C003950F3050F4BC
:100E9000102F1295107F1093ED001091EF00107C31
:100EA000112399F70F3008F048C00295007F009396
:100EB000ED00F90101810295007F000FF901108119
:100EC000169516951695010F0093F300F901008110
:100ED0000295007F000F0093F2000091EF000F7E5B
:100EE0000093EF00F9010281002329F00091F00046
:100EF00004600093F000F90103811091EF00102BC2
:100F00001093EF0000E008C010E0F901E00FF11FBE
:100F100014811093FA000395F90113810117A0F3CE
:100F20000091EF000F730093EF000091EF00006459
:100F30000093EF00789401E00895789400E008951C
:100F4000F8942091AC0E222311F400E00895EBEF09
:100F5000FCE0208131812F5F3F4F2083318320E0EF
:100F600001C023952D3078F4322F3295307F3093A5
:100F7000ED003091EF00307C332399F73091AC0EC7
:100F80003A953093AC0E2D30B8F52091F3002295B0
:100F90002F702695F80121832091F20022952F7061
:100FA00026953091F300330F330F330F230FF801E1
:100FB00020832091F000322F32FB30E030F9F8012D
:100FC00032832091EF002F70F801238320E008C0C6
:100FD0004091FA0030E0F801E20FF31F44832395BB
:100FE000F80133812317A0F30091EF00006C009308
:100FF000EF00789401E0089500E00093AC0E78943F
:1010000000E00895FA93EA935A934A933A932A9305
:101010001A930A934FB75BB70091DA00102F17FFAE
:101020008BC00091E1000076002309F071C000E060
:1010300011C0E3EBFEE0208131812F5F3F4F208321
:10104000318310E01093EE001091EF00106C1093BC
:10105000EF0003950D3008F06FC01091DA00212FDA
:1010600027FF6AC0102F1295107F1093ED0010918A
:10107000EE00212F25FF15C010E01093EE00109117
:10108000EF001F731093EF001091F300103119F46B
:1010900011E01093B50E1091AC0E13951093AC0E99
:1010A000D8CF1091EE001F7D112399F21091EE0020
:1010B000105009F4BECF1A9511F11A95B9F01A958E
:1010C00061F01A9509F0BDCFEDEAFEE02081318193
:1010D0002F5F3F4F20833183B4CFEFEAFEE02081C2
:1010E00031812F5F3F4F20833183ABCFE3EBFEE0B5
:1010F000208131812F5F3F4F20833183A2CFE1EBED
:10110000FEE0208131812F5F3F4F2083318399CFD3
:101110000DE001C003950F3078F4102F1295107F69
:101120001093ED001091EE001123A1F300E0009365
:10113000EE0000E00093EF000091DA00102F16FFA0
:1011400006C00091DA0000640093DA0005C0009147
:10115000DA000F610093DA005BBF4FBF099119916C
:101160002991399149915991E991F99118952A93C9
:101170001A930A931FB72BB70091DA00006200930D
:10118000DA002BBF1FBF0991199129911895229759
:1011900042E050E09E0100E010E034D208810F3FB1
:1011A00019F409810F3F31F00881002329F40981E6
:1011B000002311F400E001C001E0229608950E948E
:1011C000963DA69700E010E020E030E00A831B8304
:1011D0002C833D8300E0088300E010E020E030E055
:1011E00082E090E04424442450C08C0120E030E0B0
:1011F0004A815B816C817D81040F151F261F371F7B
:10120000003040E1140740E0240740E0340758F480
:101210004A815B819E012A5F3F4F8C01D6D10A81B2
:101220001B81800F911F1196098110E00A171B077F
:101230005CF100E010E020E030E00A831B832C83A7
:101240003D8300E00A938E010F5F1F4F1A930A93AC
:101250008E010B5F1F4F1A930A9350E0BE01655F2A
:101260007F4F4A2F042D10E0000F111FF801E950A5
:10127000F74F208131810CE41BE00E942016012BE6
:10128000022B032B09F4B1CF43940CE24016C8F5AE
:10129000042D10E0000F111FF801E950F74F0081F5
:1012A0001181083120E1120778F300E010E020E01E
:1012B00030E00A831B832C833D8300E0088300E039
:1012C0000A938E010F5F1F4F1A930A938E010B5FD3
:1012D0001F4F1A930A9350E0BE016A5F7F4F40E0B0
:1012E000042D10E0000F111FF801E950F74F208185
:1012F00031810CE41BE00E942016012B022B032BF2
:1013000081F0082F0E83892F8F8342E050E09E01E9
:101310002A5F3F4F00E010E058D1A696E5E00C941C
:10132000A73D0881053009F0AFCFA1E0B0E07CCF48
:101330000E94953DA69700E010E020E030E00A838F
:101340001B832C833D8300E0088300E010E020E055
:1013500030E042E0442E552480E090E03CC0820121
:1013600020E030E04A815B816C817D81040F151F94
:10137000261F371F003040E1140740E0240740E0FB
:10138000340758F44A815B819E012A5F3F4F8201F6
:1013900039D10A811B81400E511E00E00A938E0153
:1013A0000D5F1F4F1A930A9350E0BE01675F7F4F96
:1013B0004A2F8C01000F111FF801E950F74F2081CF
:1013C00031810CE41BE00E942317012B022B032B1D
:1013D00009F447C001968C3200E09007B8F58C0103
:1013E000000F111FF801E950F74F008111810831FA
:1013F00020E1120778F300E010E020E030E00A83FB
:101400001B832C833D8300E0088300E00A938E0158
:101410000F5F1F4F1A930A938E010B5F1F4F1A9392
:101420000A9350E0BE016A5F7F4F40E08C01000FDD
:10143000111FF801E950F74F208131810CE41BE0C6
:101440000E942016012B022B032B21F0A696E6E02A
:101450000C94A63D0881053009F0BCCFA1E0B0E0B6
:1014600001C01196098110E00A171B070CF4B2CFD6
:1014700000E010E020E030E00A831B832C833D83F2
:1014800000E00A938E010F5F1F4F1A930A938E019B
:101490000B5F1F4F1A930A9350E0BE01655F7F4FA9
:1014A0004A2F8C01000F111FF801E950F74F2081DE
:1014B00031810CE41BE00E942016012B022B032B30
:1014C00009F44DCF87CF229700E0088300E009831D
:1014D00042E050E09E0100E010E077D002D022967A
:1014E0000895F89400E10093600000E0009360002C
:1014F00008E1009360000FE000936000FFCF0E94BE
:10150000933D08011901CA01462F60E08001910155
:1015100000501040214030400F3D5FEF150750E074
:10152000250750E03507B0F460E0641708F5462E53
:101530005524662480019101040D151D261DF80116
:10154000322F3BBF069170E0FC01E60FF71F0083CE
:101550006395EBCF00E0001600E0100601E02006E6
:1015600000E0300648F450E090018C010E94CB3D31
:1015700000E0E8E00C94A43D02E0FBCF9A938A934C
:10158000A09780E090E006C00FEFFE01E80FF91F82
:1015900000830196803200E09007B0F380E090E095
:1015A0000CC040E250E09E01BA0140E250E08C01E4
:1015B0000E94933CAB0109D00196803800E090076F
:1015C00080F3A0968991999108950C01C80160E07B
:1015D00070E010C0F999FECF92BD81BD0196F9016E
:1015E000E60FF71F008100BDF894FA9AF99A7894F3
:1015F0006F5F7F4F8A01A80141505040012B51F786
:10160000C00108950CC0F999FECF12BD01BD0F5F56
:101610001F4FF89A60B5F90160832F5F3F4FBA0101
:10162000AB0141505040672B71F70895082EA80177
:10163000FA01E95EFE4F00811181F801008100236B
:10164000F9F480E017C000E010E020E030E0FA019B
:10165000E75EFE4F60817181E82FF0E0EE0FFF1F23
:10166000EE0FFF1F6E0F7F1FFB010083118322838C
:1016700033838395FA01EA5EFE4F0081801718F3E9
:1016800000E010E020E030E0802D0895BA93AA93A6
:10169000D80166E17BE040E023E030E18D010E946B
:1016A0006A1800E0A95EBE4FED91FC910083A991FC
:1016B000B99108950895F9014381483099F4F901E9
:1016C00060816F77F9014481F9015581F901368113
:1016D000262FB801015C1E4FF80100811181F8012D
:1016E0008B01099508950895002339F001E00093D6
:1016F000B60E01E00093B70E089500E00093B60E19
:1017000000E00093B70E08954DD100E80E945312F7
:1017100000EA0E94531200E00E94531200E40E946B
:1017200053120E949011089521978E010FD100232A
:1017300081F00091120F0E94BC1134D10881023057
:1017400011F401E001C000E00093050F01E00093F7
:10175000130F0091B50E0023D1F00091050F002367
:10176000B1F00091B80E03950093B80E1091E30804
:10177000011750F001E00093B90E00E00093B80E9D
:1017800004E012B1102712B900E00093B50E0091E9
:10179000B90E013060F00091050F002341F000E028
:1017A0000093BA0E0E943C1200E00093B90E009123
:1017B000BA0E0023F9F1119A6AE07FE04BEB5EE08C
:1017C00024E930E006E41FE094D16EE07FE040EED3
:1017D0005EE02AEA30E003E51FE08BD1E6E4FFE0BB
:1017E000008106FD05C0E6E4FFE0058506FF10C0A8
:1017F0000091B90C00930C0F0091BA0C00930D0FDF
:101800000091BB0C0093100F0091BC0C0093110FC2
:101810000091050F002351F026E03FE040E050E04A
:1018200060E070E00CE41BE00E94EE1F00E000931B
:10183000BA0E1198219608950091490F10914A0F00
:101840000093BD0E1093BE0E00914B0F10914C0FE4
:101850000093BF0E1093C00E00914F0F0093C20E65
:101860000091510F0093C30E0091470F1091480F44
:101870000093BB0E1093BC0E00914D0F0093C10E50
:101880000091520F0093C40E0091560F1091570F04
:101890000093E20E1093E30E0091580F1091590F30
:1018A0000093E40E1093E50E00915C0F0093E70E99
:1018B00000915E0F0093E80E0091540F1091550FA8
:1018C0000093E00E1093E10E00915A0F0093E60E84
:1018D00000915F0F0093E90E00E010E00093490FC4
:1018E00010934A0F00E010E000934B0F10934C0F41
:1018F00000E000934F0F00E00093510F00E010E074
:101900000093470F1093480F00E000934D0F00E045
:1019100010E00093560F1093570F00E010E0009373
:10192000580F1093590F00E000935C0F00E00093F4
:101930005E0F00E010E00093540F1093550F00E08D
:1019400000935A0F01E00093BA0E08950E94973D4C
:10195000D80190E00CE41BE00E943B36025069F095
:101960000A9559F0025039F0025029F00A9519F001
:101970000A9529F006C082E005C081E003C083E03B
:1019800001C080E00091140F081729F0882319F096
:1019900091E00E9490118C938093140F092FE4E042
:1019A0000C94A83D1D0140E022C020E010E0FD01A4
:1019B000E00FF11F228720E010E0FD01E00FF11F92
:1019C000278720E010E0FD01E00FF11F248B20E0CD
:1019D00010E0FD01E00FF11F218F20E010E0FD017C
:1019E000E00FF11F268F03950530F8F24395423042
:1019F00008F06EC050E00DE010E00E94933C26E439
:101A00003FE0200F311F50E005E210E00E94933CC0
:101A1000ABEBBEE0A00FB11F50E006E110E00E946A
:101A2000933CB80104E910E0060F171FF801349643
:101A300065917491FB015081F9015083F901508146
:101A40005F715F3119F45FE0F9015083F80170961E
:101A500065917491FB015081FD0154A3513020F434
:101A600051E0FD0154A307C0FD0154A1563018F008
:101A700055E0FD0154A3F801729665917491FB0144
:101A80005081F9015087F801749605911491F8017D
:101A90000081F901028700E010E0F901018312835F
:101AA00000E010E0F9010383148300E010E0F90185
:101AB0000583168300E0F901078300E0F90101873F
:101AC00000E0F901038700E0FD0103A300E08CCFF3
:101AD0000091320410E00058194F0093060F109344
:101AE000070F00E00093080F08E00093090FD101F1
:101AF00008950E94973DDB010093150F1093160F78
:101B00002093190F30931A0F40931B0F50931C0F03
:101B1000E0911B0FF0911C0F0681002309F473C0A4
:101B2000E091190FF0911A0F349605911491F80174
:101B30000081E091150FF091160F0083E091150FD1
:101B4000F091160F808180FB66F460D0E091190F50
:101B5000F0911A0F369625913491F90100830C9378
:101B6000119681FB76F4A1D0202FE091190FF0910E
:101B70001A0F3E9605911491F8012083FD012083F0
:101B8000119682FB66F4E8D0E091190FF0911A0FDC
:101B90003A9625913491F90100830C93119683FBB9
:101BA00066F41BD1E091190FF0911A0F3C96259124
:101BB0003491F90100830C93119684FB66F44ED1A5
:101BC000E091190FF0911A0F389625913491F9018F
:101BD00000830C931196E0911B0FF0911C0F03A151
:101BE0000395E0911B0FF0911C0F03A3E0911B0FD5
:101BF000F0911C0F14A1011730F000E0E0911B0FD1
:101C0000F0911C0F03A3E4E00C94A83DBA93AA93AF
:101C1000E0911B0FF0911C0F02811381000F111F27
:101C2000E0911B0FF0911C0F468150E00E94A73CF1
:101C3000202FE0911B0FF0911C0FA0911B0FB09172
:101C40001C0F93960C9110E0E00FF11F2287E0919A
:101C50001B0FF0911C0F3A96008110E03196208105
:101C600030E0020F131F3196208130E0020F131F66
:101C70003196208130E0020F131F3196208130E031
:101C8000020F131F20E030E0E091150FF091160FC6
:101C900023833483E0911B0FF0911C0F44A150E08B
:101CA0000E94A73CA991B9910895BA93AA93E09193
:101CB0001B0FF0911C0F04811581E0911B0FF09117
:101CC0001C0F468150E00E94BF3C202FE0911B0F6B
:101CD000F0911C0FA0911B0FB0911C0F93960C91CB
:101CE00010E0E00FF11F2787E0911B0FF0911C0F10
:101CF0003F960081102F110F110B31962081322F4A
:101D0000330F330B020F131F31962081322F330F05
:101D1000330B020F131F31962081322F330F330BF9
:101D2000020F131F31962081322F330F330B020F16
:101D3000131F20E030E0E091150FF091160F25837E
:101D40003683E0911B0FF0911C0F44A150E00E94DC
:101D5000BF3CA991B9910895BA93AA93E0911B0F42
:101D6000F0911C0F2781E0911B0FF0911C0FA091A7
:101D70001B0FB0911C0F93960C9110E0E00FF11F18
:101D8000248BE0911B0FF0911C0F7496008110E0E2
:101D90003196208130E0020F131F3196208130E010
:101DA000020F131F3196208130E0020F131F31966E
:101DB000208130E0020F131F20E0E091150FF09119
:101DC000160F2187E0911B0FF0911C0F44A150E0EA
:101DD0000E94A73CA991B9910895BA93AA93E09162
:101DE0001B0FF0911C0F2085E0911B0FF0911C0F31
:101DF000A0911B0FB0911C0F93960C9110E0E00F77
:101E0000F11F218FE0911B0FF0911C0F799600813B
:101E100010E03196208130E0020F131F31962081AF
:101E200030E0020F131F3196208130E0020F131FA4
:101E30003196208130E0020F131F20E0E091150F52
:101E4000F091160F2387E0911B0FF0911C0F44A116
:101E500050E00E94A73CA991B9910895BA93AA9322
:101E6000E0911B0FF0911C0F00811181E0911B0F7D
:101E7000F0911C0F468150E00E94A73C202FE0917A
:101E80001B0FF0911C0FA0911B0FB0911C0F93968C
:101E90000C9110E0E00FF11F268FE0911B0FF091E5
:101EA0001C0F7E96008110E03196208130E0020FF9
:101EB000131F3196208130E0020F131F31962081CD
:101EC00030E0020F131F3196208130E0020F131F04
:101ED00020E030E0E091150FF091160F218332835E
:101EE000E0911B0FF0911C0F44A150E00E94A73C11
:101EF000A991B99108950F7000931F0F08952FEFC6
:101F00003FEFF801EE58FF4F00801180FA01EE0F0D
:101F1000FF1F0E0E1F1EF00120833183F801E059D0
:101F2000FF4F20813181440F551F440F551F240F4F
:101F3000351FF9016281462F242FA80108581F4F31
:101F4000F80100811181F8018A01099508950E9424
:101F5000923D2C972801F90160800FE76022F9017A
:101F600002810130C9F5F20100811181F80100817F
:101F7000601609F0B6C0D201ED91FC91008110E02D
:101F80000050194F0883198301E00B8300E00A8396
:101F9000F201E65AFF4F00810C83F201EB5FFE4F26
:101FA0000081002349F00C8100680C8300E0F201FD
:101FB000EB5FFE4F008305C001E0F201EB5FFE4FD7
:101FC00000839E0106E0400E01E0501EF2010081F8
:101FD00011810E94420785C0F90104810F7777249F
:101FE000F201E60DF71DE658FF4F00837724F2015A
:101FF000E60DF71DE658FF4F00810F3009F471C060
:10200000882465C0F201E059FF4F00811181282D1D
:1020100030E0220F331F220F331F020F131FF8016E
:102020002281022F601609F051C0F201E059FF4FE2
:1020300000811181282D30E0220F331F220F331F22
:10204000020F131FF80180819181A281B3818F7FDC
:102050009F7FA070B070F201EE58FF4F0081118198
:10206000282D30E0220F331F020F131FF8010081CB
:1020700011810E94003B00E010E020E030E03A9344
:102080002A931A930A930FE310E020E030E0AC01AA
:10209000BD010E94D33C3A932A931A930A932FE7E7
:1020A0003FE0482D50E060E070E082010E944C3A31
:1020B000F201EE58FF4F20813181482D50E0440F4E
:1020C000551F240F351FF901008311838394F201FA
:1020D000E259FF4F00811181F8010081801608F458
:1020E00091CF2C96E9E00C94A33DBA93AA932C9738
:1020F000D801FD01EC58FF4F00811181F8010081EA
:102100001181012BD1F0ED91FC911197008110E02C
:102110000050194F0883198301E00B8300E00A8304
:10212000FD01E65AFF4F00810C839E01AA5FBE4F5E
:102130000D911C910E9442070BC0FD01EA58FF4F10
:10214000008111810E94003BAA58BF4F0D931C9340
:102150002C96A991B99108959A938A93C8018C01FC
:10216000A2D08C0107D000E010E020E030E089919F
:10217000999108950E94933DD8016CEA70E140E086
:1021800027E130E18D010E946A1800E0FD01EB5F5C
:10219000FE4F008380E041C0FD01E059FF4F008108
:1021A0001181282F30E0220F331F220F331F020F1F
:1021B000131FF8010081118120E030E0402F412BF6
:1021C000422B432B49F140E050E060E070E07A930D
:1021D0006A935A934A934FE350E060E070E00E94A4
:1021E000D33C3A932A931A930A932FE73FE0482F60
:1021F00050E060E070E08D010E944C3AFD01EE5825
:10220000FF4F20813181482F50E0440F551F240F8C
:10221000351FF901008311838395FD01E259FF4FBA
:1022200000811181F8010081801708F4B5CFFD010C
:10223000EC58FF4F00811181F80100811181012BC1
:1022400079F1FD01EC58FF4F00811181F8014080C8
:102250005180662477244FE350E060E070E0820113
:1022600093010E94D33C3A932A931A930A934FE323
:1022700050E060E070E0820193010E94D33C3A9309
:102280002A931A930A9325E730E140E050E060E09A
:1022900070E08D010E944C3AAA58BF4F0D931C93D9
:1022A000E8E00C94A43D0E94973DD80180E01FC057
:1022B000FD01EE58FF4F00811181282F30E0220FE1
:1022C000331F020F131FF801008111810E94003B90
:1022D000FD01EE58FF4F20813181482F50E0440F1F
:1022E000551F240F351FF901008311838395FD01CC
:1022F000E259FF4F00811181F80100818017C0F27F
:10230000FD01EA58FF4F008111810E94003BAA584D
:10231000BF4F0D931C93E4E00C94A83D08950895DD
:1023200000E00093800008E00093810003EF11E0DB
:102330001093890000938800469A479A009188007C
:102340001091890010938B0000938A000091810006
:1023500002600093810005E000937B000EE800938B
:102360007A0002E600937C0004E006BB00917A004C
:10237000006200937A0008959A938A93902F80E0E8
:102380002CC0082F10E020E63FE0200F311F482F1F
:1023900050E006E110E00E94933CA80104E910E03F
:1023A000040F151FF9016081F8013296459154918F
:1023B000FA014081641781F0F80132960591149179
:1023C000F8010081F9010083F90100810A950F717C
:1023D00010E4819F002967D08395823090F2992381
:1023E00051F400E00BD001E009D003EC12E10093BE
:1023F000970C1093980C8991999108953B2F4A2F2F
:10240000002399F4ECECF8E001E000932A0F04E6D5
:1024100012E10093930C1093940C0DE21FE00093D3
:102420002B0F10932C0FD80112C0E7EDF8E001E05C
:102430000093380F05E912E10093950C1093960C68
:102440000BE31FE00093390F10933A0FD80110E00F
:1024500008C0008131960E3708F00FEF0C931196EB
:1024600013951A30B0F30FEF0C930091E20800932C
:10247000910CA42FB32F089513980DE21FE0009341
:102480002B0F10932C0F01E000932A0F0BE31FE09A
:102490000093390F10933A0F01E00093380F00E0DA
:1024A0000093900C089510E51CBD40980E944B03CA
:1024B000409A0895F894E0E2FFE0008111812281C2
:1024C00033817894089508950091900CE0912B0F3A
:1024D000F0912C0F1081011771F4EAE2FFE0018105
:1024E00012810F5F1F4F0183128301E010912A0FA9
:1024F000102710932A0F00912A0F0023A1F4139A9A
:102500000091250F0093260F0091240F0093250FB3
:1025100000911D0F00580093240F24E23FE006E4D1
:102520001FE046D00895139808950091900CE09113
:10253000390FF0913A0F1081011771F4EAE2FFE0D0
:10254000078510890F5F1F4F0787108B01E01091DF
:10255000380F10271093380F0091380F002391F493
:102560000091280F0093290F0091270F0093280F47
:1025700000911E0F00580093270F27E23FE003E56C
:102580001FE016D008950DE21FE000932B0F10936B
:102590002C0F01E000932A0F0BE31FE00093390F8B
:1025A00010933A0F01E00093380F0E941C0C08951D
:1025B0008A930093620F1093630F2093640F3093FC
:1025C000650FE091620FF091630F07810395078318
:1025D000F9010081E091620FF091630F0487E091AF
:1025E000620FF091630F808180FB0EF40ED081FBAF
:1025F0000EF41FD082FB0EF42FD083FB0EF450D0CC
:1026000084FB0EF488D089910895E091640FF091D5
:10261000650F008100230AF4019510E0E091620F3C
:10262000F091630F23813481200F311F2383348382
:102630000895E091640FF091650F0081102F110F44
:10264000110BE091620FF091630F25813681200F0D
:10265000311F258336830895E091640FF091650F53
:1026600000811181012700780023C9F000811181C8
:10267000011B00230AF40195102F110F110BE0919B
:10268000620FF091630F208530E0021713073CF0D2
:10269000E091620FF091630F018503950187089522
:1026A0007B2F0A2EE091640FF091650FA091620FCD
:1026B000B091630F1A966C912081322F330F330B38
:1026C0000181102F110F110B201B310B4181542F51
:1026D000550F550B0281102F110F110B401B510B81
:1026E00089010427152700701078012B89F0332306
:1026F0000AF4219555230AF44195261710F446173C
:1027000038F0E091620FF091630F03850395038722
:10271000A02DB72F0895E091640FF091650F00810F
:10272000102F110F110B2181322F330F330B021B8E
:10273000130B11230AF4019510E0E091620FF09160
:10274000630F21813281200F311F2183328308954D
:102750009A938A93FA93EA933A922A921A920A9255
:102760007A936A935A934A933A932A931A930A93C1
:102770008FB79BB7109A0091320410E000571B4F9F
:102780000093670F1093680F00E00093690F08E053
:1027900000936A0F00917A000F7D00937A000091F8
:1027A0007A00102F16FDFBCF0091830F083018F030
:1027B00000E00093830F0091660F002309F042C0F0
:1027C000E0E2FFE000811181228133810F5F1F4F22
:1027D0002F4F3F4F00831183228333830091010DDC
:1027E000013049F401E600937C0000917A00006416
:1027F00000937A0015C00091010D023049F405E6FE
:1028000000937C0000917A00006400937A0008C075
:1028100003E600937C0000917A00006400937A0044
:1028200001E00093660F009179000093090D202FBD
:1028300020931D0F0091830F10E0F801ED58F04F29
:102840002083A1C00091010D013059F400E60093EE
:102850007C0004E006BB00917A00006200937A00DD
:1028600019C00091010D023059F404E600937C0078
:1028700004E006BB00917A00006200937A000AC06F
:1028800002E600937C0004E006BB00917A0000623F
:1028900000937A0000E00093660F009179000093A6
:1028A000120D202F20931E0F0091830F10E0F801CE
:1028B000E558F04F20830091900C1091920C011775
:1028C00028F50091900C03950093900C0091B60EA2
:1028D000002339F00091900C0D3719F401E00093BA
:1028E000B70EE091930CF091940C0995E091950C42
:1028F000F091960C09950091900C1091910C011794
:1029000029F4E091970CF091980C09950CE41BE0E8
:102910000E943B36093091F50091830F073071F525
:1029200000E00FC010911F0F112351F410E0F801C7
:10293000ED58F04F208110E0F801E959F04F248361
:10294000039510916A0F011778F410911F0F113041
:1029500049F710E0F801E558F04F208110E0F80148
:10296000E959F04F2483ECCF27E63FE040E050E008
:1029700060E070E00CE41BE00E94EE1F0091830F0A
:1029800003950093830F10989BBF8FBF09911991F6
:1029900029913991499159916991799109901990A9
:1029A00029903990E991F9918991999118950E940E
:1029B000963DD801C901FD01E65AFF4F0081002371
:1029C00039F4FD01E65AFF4F0081063009F40DC1CC
:1029D000FC010581002341F0FC0145808D010E942E
:1029E0008138401609F001C1FC010481E8E5F0E0FE
:1029F000FBBFF1E00C94273D9C018D010E947A03FE
:102A0000F4C09C018D010E948803EFC09C018D01E0
:102A10000E948C03EAC09C018D010E949C03E5C0CA
:102A20009C018D010E94AA03E0C09C018D010E94BF
:102A3000C303DBC09C018D010E94DC03D6C09C0156
:102A40008D010E94E003D1C09C018D010E94F90319
:102A5000CCC09C018D010E940E04C7C08D010E9454
:102A60006A39C3C08D010E94D739BFC08D010E9451
:102A7000281FBBC08D010E94741FB7C0FC010581D7
:102A8000ED91FC9111971081011721F420E137E2BB
:102A90008D01CCD0AAC0FD01E659FF4F20813181C4
:102AA00000E010E02017310741F08D01FD01E659EB
:102AB000FF4F20813181F9010995FC010581ED91DC
:102AC000FC9111971081011721F421E08D010E94E2
:102AD0009C378BC0FD01E65AFF4F0081013029F081
:102AE000A65ABF4F0C91043011F40E94630A7DC0B6
:102AF000FD01E65AFF4F0081013029F0A65ABF4F71
:102B00000C91043011F40E94710A6FC000E010E0D3
:102B10000093EB0C1093EC0C00E010E00093ED0C34
:102B20001093EE0C00E010E00093EF0C1093F00C0B
:102B300000E010E00093F10C1093F20C00E010E0C4
:102B40000093F30C1093F40C00E010E00093F90CE8
:102B50001093FA0C00E010E00093FB0C1093FC0CB7
:102B600000E010E00093FD0C1093FE0C3EC0A65A4E
:102B7000BF4F0C910130C9F50E94BE0A36C0A65A5B
:102B8000BF4F0C91013089F50E94DF082EC0A65A74
:102B9000BF4F0C91013049F50E94980926C0FC01F5
:102BA0000581ED91FC91119710810117F1F4FD0160
:102BB000E65AFF4F00810130C1F4FC018681FD011E
:102BC000E459FF4F2081318100E010E020173107E8
:102BD00031F08D01A459BF4FED91FC91099580937F
:102BE00032040E94DF080E94710AE5E00C94A73DC0
:102BF000BA93AA932C97F801A081B1812C9130E06F
:102C0000206037602883398320E02A8321E02B83EA
:102C100020E02C839E010A5F1E4FF8010081118184
:102C20000E9442072C96A991B99108950093840FB0
:102C30001093850F08950093840F1093850F0895C6
:102C40000E948F3D2697F8010901842E5B01852F94
:102C50004A885B886C887D88AE019E012E5F3F4F5D
:102C60008001BA01E85FFE4F40815181FA01AB015A
:102C7000099598014A815B816C817D81452B462BAA
:102C8000472B29F00A811B812C813D81D8C0F90195
:102C90000281801628F001E110E029E036E0CFC083
:102CA0008823A1F0F90160817181482D50E006E090
:102CB00010E00E94933C600F711FFB01008100FF38
:102CC00005C001E010E021E036E0B9C0F901608103
:102CD0007181482D50E006E010E00E94933C600FA7
:102CE000711FFB010181F3010083F9016081718192
:102CF000482D50E006E010E00E94933C600F711FE9
:102D0000FB0182819381A0E0B0E0F201408151811A
:102D100062817381452B462B472BD1F0F201408114
:102D2000518162817381481759076A077B0781F0D7
:102D3000F3010081093008F479C0F201408151812A
:102D400062817381481759076A077B0708F06EC0D4
:102D5000F30100810930D1F0AC01BA01F901208101
:102D60003181482D50E006E010E00E94933C200F96
:102D7000311FF90124813581AB0185010E94CB3DD2
:102D8000F20180839183A283B3834BC0F901208138
:102D90003181482D50E006E010E00E94933C200F66
:102DA000311FF90104811581B801F2010080118001
:102DB0002280338001280228032829F0F2010080B4
:102DC0001180900101C09C010801020E131E9501A3
:102DD00008C0F8014081F90140830F5F1F4F2F5F4A
:102DE0003F4FF8014081442319F00015110588F385
:102DF000A801461B570B652F660F660B762FF20155
:102E00004083518362837383F201408151816281E7
:102E10007381481759076A077B0718F420E0F80107
:102E2000208300E010E020E030E009C0F201808360
:102E30009183A283B38300E110E027E036E0269679
:102E4000E1E10C94A03D0E948B3D26975801790149
:102E5000842E6B01852F4E885F88AE019E012E5F08
:102E60003F4F8701B801F501E85FFE4F00811181F6
:102E7000F8018B01099538010A811B812C813D8164
:102E8000012B022B032B29F00A811B812C813D8110
:102E90000FC1F3010281801628F001E110E029E062
:102EA00036E006C18823A1F0F30120813181482D4D
:102EB00050E006E010E00E94933C200F311FF90122
:102EC0000081023029F402E010E021E036E0F0C099
:102ED000F30120813181482D50E006E010E00E948E
:102EE000933C200F311FF9019180F3012081318142
:102EF000482D50E006E010E00E94933C200F311F67
:102F0000F90182819381A0E0B0E0F201008111819A
:102F100022813381012B022B032BC9F0F2010081A6
:102F2000118122813381081719072A073B0779F09D
:102F300009E0901609F0B3C0F201008111812281ED
:102F40003381081719072A073B0708F0A8C0960124
:102F5000092DF50146855785FA0109950A831B83DA
:102F60002C833D830A811B812C813D81012B022B07
:102F7000032B29F00A811B812C813D8199C0AC0172
:102F80009601B9019A01F30100811181F801482DE0
:102F900050E006E010E00E94933CE00FF11F048136
:102FA0001581A9019B010E94CB3D09E0901601F516
:102FB000F2010081118122813381081719072A0744
:102FC0003B07B0F460E0F30120813181482D50E0EF
:102FD00006E010E00E94933C200F311FF90144816C
:102FE0005581F20100811181400F511FFA01608368
:102FF000F20180839183A283B38308811981012B1D
:1030000079F1082D10E0000F111FE881F981E00F20
:10301000F11F2081318100E010E02017310701F11C
:10302000482D93018501682D70E0660F771FE881B8
:10303000F981E60FF71F60817181FB0109950A8311
:103040001B832C833D830A811B812C813D81012BB5
:10305000022B032B29F00A811B812C813D8128C082
:10306000F30120813181482D50E006E010E00E94FC
:10307000933C200F311FF901008102FF0BC0482D46
:10308000970185015AE0A50E51E0B51ED501ED91DD
:10309000FC91099500E010E020E030E009C0F20169
:1030A00080839183A283B38300E110E027E036E0C0
:1030B0002696E3E10C949C3DBA93AA93D80189012A
:1030C0009A01AB01A85FBE4FED91FC910995A991C2
:1030D000B99108950E94973D2697842FDB01BE0188
:1030E000AE014E5F5F4FE8DF4A815B816C817D817D
:1030F000452B462B472B89F428813981232B69F0F6
:10310000F8010281801748F490E0880F991FE88148
:10311000F981E80FF91FA083B1830A811B812C81FB
:103120003D812696E4E00C94A83D08950E948C3DD4
:103130002D973801622F6A01F30122813381F30157
:1031400006811781F8014085518505E010E00E9455
:10315000933C200F311F462F50E005E010E00E9405
:10316000933C200F311FF30142805380F30106810D
:103170001781F8014285538505E010E00E94933CD9
:10318000400E511E462F50E005E010E00E94933C97
:10319000400E511EEE248824F20100811181F801B5
:1031A000A480B580F90100811181F80102851385A1
:1031B000F801008111810F7F1770F60100831183E0
:1031C00000E0F60102838E010B5F1F4FF80120E043
:1031D00088E021938A95E9F7F201208131814E2D13
:1031E00050E006E010E00E94933C200F311FF901EF
:1031F00002851385F80122803380022C132C8081F4
:103200009181A281B3818F7F9070A070B070082FE0
:10321000092B0A2B0B2B09F459C0482D50E060E014
:1032200070E0480F591F6A1F7B1F413400E05007B0
:1032300000E0600700E0700708F048C08C019D01C5
:10324000015010402040304043E00E94F33C0F5FAB
:103250001F4F2F4F3F4F09831A832B833C831181CC
:10326000012F402F01E00A938E010F5F1F4F1A9329
:103270000A938E010C5F1F4F1A930A9350E0BE0110
:10328000665F7F4F900183010E942016012B022B65
:10329000032B11F00FEF2BC000E00A9348E0082D3C
:1032A0000E94853C542F082D06950695069510E042
:1032B000B601600F711F6C5F7F4F40E010E09E0110
:1032C0002A5F3F4F0C01002D34D2880EE394F501A4
:1032D0000081E01608F477CF082D10E0015010406F
:1032E00043E00E94A13C0395F601038300E02D9684
:1032F000EFE00C949D3D0E948B3D6897C8015901F9
:1033000088249924A0E0B0E040E050E060E070E064
:1033100002E0DD24CC247724F5011281112309F089
:1033200007C1FC0126813781F90144805580FC01E9
:1033300020853185F90124813581142D152931F439
:1033400000E06896E0E10C949C3D04E0241535050E
:10335000B8F3102F125019F0125039F1F7CFFC01C9
:103360006281738105E010E0A2010E94933C600F2E
:10337000711FFB0100811181F80162857385FB01DA
:103380004081518162817381F50100801180222486
:1033900033244015510562057305B9F2C39401E069
:1033A000400E00E0501E02E0D1CFFC0106811781E3
:1033B000F80146805780FC016281738105E010E0CE
:1033C000A2010E94933C600F711F4C2D50E005E05C
:1033D00010E00E94933C600F711FFB01008111817E
:1033E000F80184809580772402C0D60C7394F40190
:1033F0000081701608F09AC08E010C5F1F4FF80113
:1034000020E0A8E02193AA95E9F7FC01228133810D
:1034100005E010E0A2010E94933C200F311FF9014A
:103420004C2D50E005E010E00E94933CE00FF11FAE
:1034300020813181472D50E006E010E00E94933C4E
:10344000200F311FF901A285B3850A2F0B2B11F430
:103450000FEF77CF0D911D912D911397602E662060
:1034600029F2F501038110E0980143E089010E94EF
:103470009B3C4D2D50E0262D30E0420F531F04178A
:1034800015070CF4B3CF00E00A9350E0BE016B5F68
:103490007F4F40E04A937B015A9348E00D2D0E94F4
:1034A000853C142F5991B70149910D2C069406942F
:1034B000069411249501200D311D2C5F3F4F062DE0
:1034C00038D1062D10E001501040980143E08901E9
:1034D0000E94A13C0F5F1F4F212F220F220B322F82
:1034E000088319832A833B8301E00A938E010F5FCF
:1034F0001F4F1A930A9350E0BE01695F7F4F0D91F1
:103500001D912D911397012F402F0D911D912D91FC
:103510003C91022F132F98018C010E942317012B3D
:10352000022B032B09F461CF0FEF0BCF00E009CF83
:10353000F5010281013009F003CF01E0FC01268191
:103540003781F90140845184FC0120853185F901DE
:1035500020853185142D152911F4F2CE04E02415AF
:10356000350508F4EDCE102F115031F0135051F104
:103570001A9509F4C8C0F3CFFC016281738105E09C
:1035800010E0A2010E94933C600F711FFB010081BB
:103590001181F80162857385FB014081518162814F
:1035A0007381F501008011802224332440155105D8
:1035B0006205730599F2C39401E0400E00E0501ECD
:1035C00001E0CDCFFC016281738105E010E0A20132
:1035D0000E94933C600F711FFB0100811181F80173
:1035E00040895189FA0100810D3F11F405E0B7CF00
:1035F000FA0100810C3F39F5FC01648175814C2D85
:1036000050E001E110E00E94933C600F711FFB014C
:10361000008100FF16C0FC01248135814C2D50E053
:1036200001E110E00E94933C200F311F2B5F3F4FC0
:103630008A5F9E4FFC01008111810E94420700E0D9
:1036400080CE05E08CCFFA0100810F3F29F0FA010E
:1036500000810E3F09F055C0FC01248135814C2DBD
:1036600050E001E110E00E94933C200F311FF9016E
:10367000018112810E94003B9801FC0164817581E7
:103680004C2D50E001E110E00E94933C600F711F4F
:10369000FB0121833283FC01248135814C2D50E0D4
:1036A00001E110E00E94933C200F311FF9010381DA
:1036B00014810E94003B9801FC01648175814C2DAE
:1036C00050E001E110E00E94933C600F711FFB018C
:1036D00023833483FC01248135814C2D50E001E1AA
:1036E00010E00E94933C200F311FF90100810E7FF2
:1036F00000834C2D50E060E070E08C0182D000E04F
:1037000020CE0FEF1ECEAE01445F5F4F2C2D8C01FB
:103710000DDD002311F00FEF14CE9E01245F3F4F0B
:103720008A5F9E4FFC01008111810E94420700E0E8
:1037300008CE0E94973D802F112E042EDB01652FAD
:103740007C8105C001E010E0A00FB11F831981301A
:1037500008F454C0562F511951303CF0F901008142
:1037600010E0452F0E949B3C07C0F901008110E04A
:10377000452F41950E94A13C202E51301CF008E0BD
:10378000061B02C008E00119102F811710F4082F42
:1037900001C0012F302E462F430D0FEF10E00E9485
:1037A0009B3C502F48E0461B0FEF10E00E94A13CCD
:1037B000502B052F009520220C9105230C930C9182
:1037C00002290C93130C012D102E083050F01124F7
:1037D000002019F00FEF1FEF02C001E010E0200FF2
:1037E000311F630D062F602F083008F4AFCF60E063
:1037F000772309F4A7CF0FEF1FEFA6CFE5E00C94D6
:10380000A83D0E94973D1801CA01DB012FEF3FEF51
:10381000F10164817581AC0101E110E00E94933CEB
:10382000600F711FFB012183328320E030E0F10142
:10383000648175818C0141E150E00E94933C600FEE
:10384000711FFB012583368320E081012BD0E4E04A
:103850000C94A83D0E94973D1801CA01DB012FEF8F
:103860003FEFF10164817581AC0101E110E00E943C
:10387000933C600F711FFB0123833483F10124818A
:1038800035818C0141E150E00E94933C200F311FB3
:10389000F90100810E7F008320E0810103D0E4E084
:1038A0000C94A83D0E948B3D2F9728832801662405
:1038B000A0E0B0E003E0702EF20106811781F8016C
:1038C000C084D184F20106811781F8010285138535
:1038D00009831A83F20100851185F801E084F184DF
:1038E0000FEF01B90C2D0D2909F427C24CE050E06F
:1038F00020E030E08E010D5F1F4F0E94FB3D02C0B3
:103900000BE0702EEC14FD0408F417C2072D0350D1
:1039100039F0025009F4DEC1065009F4FEC10BC2B1
:10392000F2012281338105E010E0A6010E94933C60
:10393000200F311FF90100811181F80102851385E3
:10394000F801038107FDDCCFF2012281338105E01C
:1039500010E0A6010E94933C200F311FF901008165
:103960001181F801A089B1890881002309F446C0BA
:103970000C910A95003F08F041C0F2012481358185
:10398000462D50E001E110E00E94933C200F311FD2
:10399000F90120812395F20164817581462D50E063
:1039A00001E110E00E94933C600F711FFB01208336
:1039B0000C91201719F560E0F20124813581462D24
:1039C00050E001E110E00E94933C200F311FF9010B
:1039D00060834CE050E020E030E08E010D5F1F4F2F
:1039E0000E94FB3DA801262D8201A0DB002319F0D7
:1039F0000BE0702E87CF05E0702E84CF0881002366
:103A0000C1F10C910C3FA9F5F20124813581462DBD
:103A100050E001E110E00E94933C200F311F2B5F2A
:103A20003F4FA901262D820181DB002381F0F201A5
:103A300024813581462D50E001E110E00E94933C45
:103A4000200F311FF90100810E7F00830FC0F201AA
:103A500024813581462D50E001E110E00E94933C25
:103A6000200F311FF9010081016000830BE0702EEF
:103A700049CF0881002319F00C910023B1F00C917B
:103A80000F3F21F00C910E3F09F021C1F20124817A
:103A90003581462D50E001E110E00E94933C200F5B
:103AA000311FF901008100FD12C14CE050E020E01F
:103AB00030E08E010D5F1F4F0E94FB3DA801262DB7
:103AC000820134DB002319F00BE0702E1BCFF201D2
:103AD00024813581462D50E001E110E00E94933CA5
:103AE000200F311FF901058116812B813C810217BE
:103AF000130759F5F20124813581462D50E001E18B
:103B000010E00E94933C200F311FF90100851E81B7
:103B10000117D9F448E050E09E01295F3F4FBA01F8
:103B2000F20184819581462D50E001E110E00E9470
:103B3000933C800F911F09968C01AB010E94B33D0D
:103B4000012B19F40BE0702EDDCEF20122813381BE
:103B500005E010E0A6010E94933C200F311FF901FF
:103B600000811181F80102A113A1F80180819181E6
:103B7000A0E0B0E0F2012281338105E010E0A6016F
:103B80000E94933C200F311FF90100811181F8013F
:103B900006891789F80180809180AA24BB2405E05A
:103BA000702E082F092B0A2B0B2BE1F1F201048157
:103BB0001581F801462D50E001E110E00E94933C90
:103BC000E00FF11F018112810E94003B00E010E034
:103BD00020E030E03A932A931A930A930FE310E01F
:103BE00020E030E0AC01BD010E94D33C3A932A931F
:103BF0001A930A9321E03CE1462D50E060E070E02A
:103C000082010E944C3A9801F20164817581462D2F
:103C100050E001E110E00E94933C600F711FFB0136
:103C200021833283082D09290A290B2909F46ACE38
:103C3000F20124813581462D50E001E110E00E941F
:103C4000933C200F311FF901038114810E94003B36
:103C500000E010E020E030E03A932A931A930A93B0
:103C600004E610E020E030E0A401B5010E94D33C5E
:103C700044E00E94F33C3A932A931A930A932AE26F
:103C80003CE1462D50E060E070E082010E944C3A39
:103C90009801F20164817581462D50E001E110E048
:103CA0000E94933C600F711FFB0123833483F20158
:103CB00024813581462D50E001E110E00E94933CC3
:103CC000200F311FF9010081016000831BCE0BE042
:103CD000702E18CEF20124813581462D50E001E18D
:103CE00010E00E94933C200F311F2B5F3F4FBE011D
:103CF0006D5F7F4F8901FB014CE050E00E946C3DFD
:103D00009E012D5F3F4FF201EA5FFE4F008111815E
:103D10000E9442070BE0702EF5CD639401E0C00EC7
:103D200000E0D01E09811A810F5F1F4F09831A839B
:103D300003E0702EE7CD0FEF01C000E02F96E0E129
:103D40000C949C3D0E94973DD801FD01E05AFF4F25
:103D50000081002309F475C0425029F04A9519F0FA
:103D6000425009F06EC0FD0162817381FD01068140
:103D70001781F8014085518505E010E00E94933CD1
:103D8000600F711F261B370B890145E050E00E9430
:103D9000BF3C802FFD0124813581482F50E001E197
:103DA00010E00E94933C200F311FF9010181128124
:103DB0000E94003B9801FD0164817581482F50E00D
:103DC00001E110E00E94933C600F711FFB01218311
:103DD0003283FD0124813581482F50E001E110E05C
:103DE0000E94933C200F311FF901038114810E942E
:103DF000003B9801FD0164817581482F50E001E18D
:103E000010E00E94933C600F711FFB0123833483F9
:103E100060E0FD0124813581482F50E001E110E090
:103E20000E94933C200F311FF9016083482F50E01E
:103E300060E070E08D01E5DC00E010E020E030E0C3
:103E400004C000E010E020E030E0E4E00C94A83D85
:103E50000E94933D26972801662408E1702EF20106
:103E600006811781F80180859185F2010085118511
:103E7000F801A085B185082F092B61F52EC0BE0180
:103E8000AE014E5F5F4F930182010E945C180A8170
:103E90001B812C813D81012B022B032BB1F4088166
:103EA0001981012B91F022EA3EE1E881F981248316
:103EB000358322EA3EE1E881F9812683378322EACD
:103EC0003EE1E881F9812287338701E0600E00E05E
:103ED000701E0196A817B90790F620E08201E2DC77
:103EE0002696E8E00C94A43D0E94933DD80144241A
:103EF000FD0106811781F80180859185FD0100850E
:103F00001185F80160847184082F092B09F05FC0C6
:103F100062C0FD0124813581442D50E001E110E0B3
:103F20000E94933C200F311FF901018112810E94F0
:103F3000003B9801FD0164817581442D50E001E151
:103F400010E00E94933C600F711FFB0121833283BC
:103F5000FD0124813581442D50E001E110E00E94F3
:103F6000933C200F311FF901038114810E94003B13
:103F70009801FD0164817581442D50E001E110E05C
:103F80000E94933C600F711FFB012383348360E028
:103F9000FD0124813581442D50E001E110E00E94B3
:103FA000933C200F311FF901608320E030E0FD01D8
:103FB00064817581442D50E001E110E00E94933C42
:103FC000600F711FFB0125833683439401966816A9
:103FD000790608F09ECFE8E00C94A43D0E94973D3E
:103FE000D801FD018481958101E110E00E94933C9C
:103FF000800F911F05968C01F9014CE050E00E9462
:104000006C3DAA5FBE4F0D911C910E944207E4E0F7
:104010000C94A83D24E00CE41BE00E949C3721E0B6
:104020000CE41BE00E949C3704E610E00E94F205BD
:10403000089506E81FE00E94A007002331F026E85B
:104040003FE00CE41BE00E9440360CE41BE00E94C1
:104050003B360093B20C0E94FB0608950E94913DEE
:104060004801CA01DB012FEF3FEFAC010AE410E089
:104070000E94933CF401E00FF11FEA5AFF4F2083A6
:10408000318325E8AC010AE410E00E94933CF4017E
:10409000E00FF11F228B00E010E024E035E03A93BE
:1040A0002A931A930A93AC010AE410E00E94933C0D
:1040B000F401E00FF11F628DAC010AE410E00E94F0
:1040C000933CF401E00FF11F408D518D1A01AC01BA
:1040D0000AE410E00E94933CF401E00FF11F3089E4
:1040E000A1011A01AC010AE410E00E94933CF40122
:1040F000E00FF11F2189A101840120D600E010E02A
:1041000024E035E028013901AC010AE410E00E9406
:10411000933CF401E00FF11F448A558A668A778A3E
:10412000AC010AE410E00E94933CF401E00FF11F9F
:10413000E85AFF4F2081318100E010E0201731075D
:10414000D9F0AC010AE410E00E94933CF401E00FC6
:10415000F11F20898401B8018C014AE450E00E94DB
:10416000933CF401E00FF11FE85AFF4F00811181E9
:10417000F8018B0109950EC0AC010AE410E00E9421
:10418000933CF401E00FF11F0189013019F4282F4D
:10419000840155D3EAE00C94A23D0E94983DC801E9
:1041A000A0E004C02A2F8C014AD3A395A130D0F3FC
:1041B000E3E00C94A93D0E94973D24971801422FFB
:1041C00050E00AE410E00E94933CF101E00FF11F7F
:1041D000438D548D658D768D452B462B472BD1F421
:1041E000422F50E00AE410E00E94933CF101E00FFE
:1041F000F11F878D90A1A1A1B2A1422F50E00AE446
:1042000010E00E94933CF101E00FF11F838F948F27
:10421000A58FB68F422F50E00AE410E00E94933C35
:10422000F101E00FF11F438D548D658D768D48832C
:1042300059836A837B8301E00A938E010F5F1F4FCE
:104240001A930A9351E0352F422F50E00AE410E010
:104250000E94933CB101600F711F6D5D7F4F532F22
:10426000352F422F50E00AE410E00E94933CF10108
:10427000E00FF11F428D532F842F952F422F50E0D6
:104280000AE410E00E94933CF101E00FF11F208D41
:10429000318D592F482F81010E942317402F412B28
:1042A000422B432B21F400E010E020E030E0249684
:1042B000E4E00C94A83D0E94933D2597D801822FFD
:1042C00000E010E020E030E009831A832B833C8378
:1042D00001E00A938E010F5F1F4F1A930A938E011C
:1042E0000C5F1F4F1A930A9351E0252F482F50E07F
:1042F0000AE410E00E94933CBD01600F711F6D5DE8
:104300007F4F522F252F482F50E00AE410E00E94E3
:10431000933CFD01E00FF11F428D522F242E352ECC
:10432000482F50E00AE410E00E94933CFD01E00FAA
:10433000F11F208D318D532D422D8D010E942016AD
:10434000402F412B422B432B41F549805A806B80F3
:104350007C80482F50E00AE410E00E94933CFD016D
:10436000E00FF11F438E548E658E768E00E010E0D4
:1043700020E030E028013901482F50E00AE410E045
:104380000E94933CA00FB11FFD01478E50A261A275
:1043900072A200E010E020E030E02596E8E00C9406
:1043A000A43D0E948D3DEB974801A22EC32E80E0D4
:1043B00090E0A0E0B0E000E010E020E030E00D830D
:1043C0001E832F8338876624442455240AC066241C
:1043D00063948F5F9F4FAF4FBF4F01E0400E00E0EF
:1043E000501EDD244C145D040CF08EC000E00883E8
:1043F00000E010E020E030E00D831E832F8338873B
:1044000001E00A938E010F5F1F4F1A930A938E01EA
:10441000085F1F4F1A930A9351E0BE016A5F7F4FF6
:10442000252F4A2D50E00AE410E00E94933CF4014D
:10443000E00FF11F428D042D400F522F242E352EF8
:104440004A2D50E00AE410E00E94933CF401E00F92
:10445000F11F208D318D532D422D84010E94201695
:10446000402F412B422B432B11F4662009F092C0C0
:104470000881055029F00A9559F00A95E1F0A7CF77
:104480002981FE0139968C01E00FF11F2083A1CF15
:104490002981FE0139968C01E00FF11F20838F5F87
:1044A0009F4FAF4FBF4F2A81FE0139968C01E00F1D
:1044B000F11F20838ECF2981FE0139968C01E00FF8
:1044C000F11F20838F5F9F4FAF4FBF4F2A81FE01A7
:1044D00039968C01E00FF11F20838F5F9F4FAF4F04
:1044E000BF4F2B81FE0139968C01E00FF11F208315
:1044F0008F5F9F4FAF4FBF4F2C81FE0139968C01CC
:10450000E00FF11F208365CF4A2D50E00AE410E050
:104510000E94933CF401E00FF11F838F948FA58FCD
:10452000B68F00E010E020E030E0280139014A2D8C
:1045300050E00AE410E00E94933CF401E00FF11F08
:10454000478E50A261A272A225E04A2D50E00AE4F3
:1045500010E00E94933CF401E00FF11FEB5AFF4F73
:104560002083AC019E01275F3F4FBA014A2D50E0E6
:104570000AE410E00E94933C800E911E03E2800E3C
:1045800000E0901E8401AB010E94CB3D00E010E0F2
:1045900020E030E0EB96EEE00C949E3D0E948B3DD7
:1045A0001801822E2A013B0128893989482D50E0C3
:1045B0000AE410E00E94933CF101E00FF11F478DE7
:1045C00050A161A172A1440D551D661D771D433395
:1045D00000E0500700E0600700E0700710F00FEF08
:1045E00067C0482D50E00AE410E00E94933CF101BE
:1045F000E00FF11F838D948DA58DB68D482D50E071
:104600000AE410E00E94933CF101E00FF11F478D96
:1046100050A161A172A1440D551D661D771D84171F
:104620009507A607B70710F40FEF42C0482D50E0DA
:104630000AE410E00E94933CF101E00FF11F878D26
:1046400090A160E016C0482D50E00AE410E00E94FE
:10465000933CF101E00FF11F8C0170E0060F171F72
:10466000E00FF11F03A170E0F901E60FF71F0083CF
:104670006395C62EDD24EE24FF24C414D504E6047D
:10468000F70408F3482D50E00AE410E00E94933C40
:10469000200E311EF101078D10A121A132A1040DC0
:1046A000151D261D371D078F10A321A332A300E07F
:1046B000E2E10C949C3D0E948B3D1801822E2A0160
:1046C0003B0128893989482D50E00AE410E00E9416
:1046D000933CF101E00FF11F478D50A161A172A140
:1046E000440D551D661D771D433300E0500700E063
:1046F000600700E0700710F00FEF43C0482D50E056
:104700000AE410E00E94933CF101E00FF11F878D55
:1047100090A160E017C070E0F901E60FF71F70810B
:10472000482D50E00AE410E00E94933CF101E00FB4
:10473000F11FAC01062F10E0400F511FE40FF51FD1
:1047400073A36395C62EDD24EE24FF24C414D50480
:10475000E604F70400F3482D50E00AE410E00E945C
:10476000933C200E311EF101078D10A121A132A131
:10477000040D151D261D371D078F10A321A332A37D
:1047800000E0E2E10C949C3D0E948F3D21972801BE
:10479000722E632E4A01A62E8D859E85AF85B8891F
:1047A000AE01362D272D820187D1B02EBB2031F4EA
:1047B00001E0601619F42881820141D0BB2059F52F
:1047C00002E0601641F5488150E00AE410E00E94E2
:1047D000933CF201E00FF11FEA5AFF4F0081118173
:1047E0000E94003B9801488150E00AE410E00E94DA
:1047F000933CF201E00FF11FEA5AFF4F208331830F
:1048000025E8488150E00AE410E00E94933CF20160
:10481000E00FF11F228BBA93AA939A938A936A2D81
:10482000A401372D262D820189D2B02EBB2011F094
:104830000FEF01C000E02196E0E10C94A03D0E9442
:10484000933DD801822F70E060E040E050E030E01E
:10485000282F8D0145D0442455246624772416C082
:1048600020E0482F50E00AE410E00E94933CFD0154
:10487000E00FF11F8201E00FF11F23A301E0400EC2
:1048800000E0501E00E0601E00E0701E02E34016D3
:1048900000E0500600E0600600E0700608F320E04B
:1048A000482F50E00AE410E00E94933CFD01E00F25
:1048B000F11F218B00E010E020E030E028013901F9
:1048C000482F50E00AE410E00E94933CA00FB11F73
:1048D000FD01448A558A668A778AE8E00C94A43DF3
:1048E0000E94933DD801822F632E2A01762E972FA6
:1048F000923011F0933041F500E010E020E030E01C
:104900003A932A931A930A9308E116EF20E030E0D5
:104910003A932A931A930A932EE230E2482F50E0FA
:1049200060E070E08D010E944C3A9801482F50E001
:104930000AE410E00E94933CFD01E00FF11FEA5AE7
:10494000FF4F208331831DC0482F50E00AE410E060
:104950000E94933CFD01E00FF11FEA5AFF4F0081D6
:1049600011810E94003B9801482F50E00AE410E0BA
:104970000E94933CFD01E00FF11FEA5AFF4F208394
:104980003183482F50E00AE410E00E94933CFD017F
:10499000E00FF11F608A482F50E00AE410E00E9407
:1049A000933CFD01E00FF11F408E518E482F50E0E7
:1049B0000AE410E00E94933CFD01E00FF11F728EAB
:1049C000482F50E00AE410E00E94933CFD01E00F04
:1049D000F11F928B20E0482F50E00AE410E00E9483
:1049E000933CFD01E00FF11F238B00E010E020E07D
:1049F00030E028013901482F50E00AE410E00E941D
:104A0000933CFD01E00FF11F438E548E658E768E30
:104A100000E010E020E030E028013901482F50E0AC
:104A20000AE410E00E94933CFD01E00FF11F478E65
:104A300050A261A272A220E0482F50E00AE410E0E8
:104A40000E94933CFD01E00FF11FEB5AFF4F2083C2
:104A500020E030E0482F50E00AE410E00E94933C50
:104A6000A00FB11FA85ABF4F2D933C9300E0E8E080
:104A70000C94A43DB801222E9A0140E001C0439558
:104A80004130C0F450E00AE410E00E94933CFB0186
:104A9000E00FF11F0289002391F7F901408350E0F4
:104AA0000AE410E00E94933C600F711FFB01218A11
:104AB00000E008950FEF08951D01B801DA0140E00C
:104AC00001C04395413020F550E00AE410E00E9417
:104AD000933CFB01E00FF11F0289002391F350E0AA
:104AE0000AE410E00E94933CFB01E00FF11F0089F3
:104AF000021739F750E00AE410E00E94933CFB01F2
:104B0000E00FF11F01890317E1F64C9300E001C0AB
:104B10000FEFD10108950E94973DB801222E9A010E
:104B2000422D50E00AE410E00E94933CFB01E00FAC
:104B3000F11F838D948DA58DB68D892B8A2B8B2BA0
:104B400051F440E050E060E070E0F90140835183AF
:104B50006283738323C0422D50E00AE410E00E9478
:104B6000933CFB01E00FF11F838D948DA58DB68DD5
:104B7000422D50E00AE410E00E94933C600F711F48
:104B8000FB01478D50A161A172A1841B950BA60B5F
:104B9000B70BF90180839183A283B38300E0E4E043
:104BA0000C94A83D0E94973DF801CA01DB018333B4
:104BB00000E0900700E0A00700E0B00710F00FEF62
:104BC0000DC0422F50E00AE410E00E94933CE00F39
:104BD000F11F838F948FA58FB68F00E0E4E00C94D3
:104BE000A83D0E94973D2C97D801422F60E020E01D
:104BF00030E000E010E0FD01E65AFF4F5081552300
:104C000031F0FD01E65AFF4F0081063011F40FEF3D
:104C100091C04130E9F41696ED91FC9117974081CF
:104C20005181042F052B11F40FEF84C0FD01628127
:104C3000738125E030E08A01A9010E94933C600F56
:104C4000711FFB0100811181F8012089318952C057
:104C500080E090E0FD0106811781F80142815381D7
:104C6000FD0100851185F80122813381042F052B78
:104C700029F40FEF5FC04F5F5F4F01962417350790
:104C800020F1FD012280338005E010E00E94933C7A
:104C9000200E311EF1010281043010F40FEF4AC0E2
:104CA000FD012280338005E010E00E94933C200E3D
:104CB000311EF10100811181F80106891789F8017F
:104CC000008118890117B9F661E0662311F40FEF2E
:104CD00031C0FD016281738125E030E08A01A901C4
:104CE0000E94933C600F711FFB0100811181F8014C
:104CF00022853385F901008111810883198300E041
:104D00000A8308E00B8300E00CC0FE01709610E0FF
:104D1000E00FF11F2181FE0110E0E00FF11F24835D
:104D20000395083090F39E01AA5FBE4F0D911C9130
:104D30000E9442072C96EDE00C94A83D0E94973DFE
:104D40002997D801822F8A01262F4D855E856F8590
:104D50007889813031F4ED91FC911197308138835D
:104D600001C0388330E83983302F3A83012F0B8319
:104D70002C838A010D838A01012F0E839B01022F50
:104D80000F83472F4887FE0109E010E00E94833D12
:104D9000282F8D0126DF2996E8E00C94A83D0E947B
:104DA0008D3D2E97D8012901DD240024112403E034
:104DB000C02E00E010E023E0C22EFD0126813781E5
:104DC000F90140815181FD0120853185F901208162
:104DD000318160E0742F752B21F436C063954F5FED
:104DE0005F4F2417350780F1FD012280338005E0F5
:104DF00010E00E94933C200E311EF101028102302E
:104E000010F40FEF87C3FD012280338005E010E02E
:104E10000E94933C200E311EF10100811181F801A6
:104E200002851385F8010080118022803380F20111
:104E300080809180AA24BB24081419042A043B040E
:104E400069F6CC24C394D62E03E0C01609F058C0EE
:104E5000FD0106811781F80142815381FD01008522
:104E60001185F8012281338160E0042F052B21F4A4
:104E700047C063954F5F5F4F2417350708F440C064
:104E8000FD012280338005E010E00E94933C200E5B
:104E9000311EF1010281043010F40FEF3BC3FD011C
:104EA0002280338005E010E00E94933C200E311EEA
:104EB000F10100811181F80100891189F801008058
:104EC000118022803380F20180809180AA24BB244B
:104ED000081419042A043B0461F6FD012281338180
:104EE00005E010E00E94933C200F311FF901008182
:104EF0001181F8010688178802E0C02EF001D080E9
:104F000003E0C01611F40FEF05C3F201038108306E
:104F100089F000E010E020E038E03A932A931A93F9
:104F20000A9360E040E050E03C2D2D2D8D012CDCFB
:104F30000FEFF0C2F201048102950F700695005048
:104F4000A1F00A9509F4EAC20A9509F4CFC50A95B9
:104F500011F40C94FA2F0A9511F40C940F330A955E
:104F600011F40C94A4330C94343601E0C01609F00B
:104F700050C1AE013C2D2D2D8D019EDD002381F40D
:104F8000488150E00AE410E00E94933CFD01E00FEC
:104F9000F11F0289023011F011E001C010E0012F71
:104FA000002389F001E210E020E038E03A932A93F0
:104FB0001A930A9360E040E050E03C2D2D2D8D01C6
:104FC000E3DB0FEFA7C2488150E00AE410E00E9443
:104FD000933CFD01E00FF11FEA5AFF4F0081118160
:104FE0000F3F2FEF120709F444C0488150E00AE454
:104FF00010E00E94933CFD01E00FF11FEA5AFF4FC1
:10500000008111810E94003B9801488150E00AE430
:1050100010E00E94933CFD01E00FF11FEA5AFF4FA0
:105020002083318300E010E020E030E03A932A93BF
:105030001A930A9308E116EF20E030E03A932A939E
:105040001A930A932EE230E2488550E060E070E067
:105050008D010E944C3A9801488150E00AE410E02A
:105060000E94933CFD01E00FF11FEA5AFF4F20839D
:105070003183488150E00AE410E00E94933CFD0136
:10508000E00FF11F808D918D488150E00AE410E01F
:105090000E94933CFD01E00FF11F628C488150E0BB
:1050A0000AE410E00E94933CFD01E00FF11F038928
:1050B000F201148114FB10E010F9011781F000E0F7
:1050C00010E023E035E03A932A931A930A93662D71
:1050D000AC013C2D2D2D8D0157DB0FEF1BC207E0DE
:1050E00010E0F2012481269530E027703070021B19
:1050F000130B212F220F220B322F09831A832B83AC
:105100003C8382010B5F1F4F1A930A934B815C8192
:105110006D817E812A818D01CEDA002381F000E04D
:1051200010E020E038E03A932A931A930A93662D10
:10513000AC013C2D2D2D8D0127DB0FEFEBC1ED9147
:10514000FC91119700810D83488150E00AE410E042
:105150000E94933CFD01E00FF11F03890295007F3F
:1051600000620E8301E010E020E030E00BC060E060
:10517000FE013596A801E40FF51F61830F5F1F4FF5
:105180002F4F3F4F083040E0140740E0240740E035
:10519000340768F3FE01359609E010E00E94833D74
:1051A0002C2D8D011EDD488150E00AE410E00E94A4
:1051B000933CFD01E00FF11F0389002311F421E06E
:1051C00001C020E0488150E00AE410E00E94933CD6
:1051D000FD01E00FF11F238BF201048100FF99C153
:1051E00028818D010E94DB20402F412B422B432B35
:1051F00061F03A932A931A930A93662DAC013C2DE1
:105200002D2D8D01C1DA0FEF85C128818D0117DBAE
:1052100080C1AE013C2D2D2D8D014EDC002381F48B
:10522000488150E00AE410E00E94933CFD01E00F49
:10523000F11F0289033011F011E001C010E0012FCD
:10524000002389F001E210E020E038E03A932A934D
:105250001A930A9360E040E050E03C2D2D2D8D0123
:1052600093DA0FEF57C1488150E00AE410E00E9442
:10527000933CFD01E00FF11FEA5AFF4F00811181BD
:105280000F3F2FEF120709F444C0488150E00AE4B1
:1052900010E00E94933CFD01E00FF11FEA5AFF4F1E
:1052A000008111810E94003B9801488150E00AE48E
:1052B00010E00E94933CFD01E00FF11FEA5AFF4FFE
:1052C0002083318300E010E020E030E03A932A931D
:1052D0001A930A9308E116EF20E030E03A932A93FC
:1052E0001A930A932EE230E2488550E060E070E0C5
:1052F0008D010E944C3A9801488150E00AE410E088
:105300000E94933CFD01E00FF11FEA5AFF4F2083FA
:105310003183488150E00AE410E00E94933CFD0193
:10532000E00FF11F808D918D488150E00AE410E07C
:105330000E94933CFD01E00FF11F628C488150E018
:105340000AE410E00E94933CFD01E00FF11F038985
:10535000F201148114FB10E010F9011781F000E054
:1053600010E023E035E03A932A931A930A93662DCE
:10537000AC013C2D2D2D8D0107DA0FEFCBC007E0DE
:1053800010E0F2012481269530E027703070021B76
:10539000130B212F220F220B322F09831A832B8309
:1053A0003C8382010B5F1F4F1A930A934B815C81F0
:1053B0006D817E812A818D017ED9002381F000E0FC
:1053C00010E020E038E03A932A931A930A93662D6E
:1053D000AC013C2D2D2D8D01D7D90FEF9BC04881FD
:1053E00050E00AE410E00E94933CFD01E00FF11F41
:1053F0000389002311F421E001C020E0488150E03E
:105400000AE410E00E94933CFD01E00FF11F238BA2
:10541000F201048100FF4DC0488150E00AE410E031
:105420000E94933CFD01E00FF11FEA5AFF4F0081FB
:1054300011810E94003B9801488150E00AE410E08D
:105440000E94933CFD01E00FF11FEA5AFF4F2083B9
:10545000318321E0488150E00AE410E00E94933C4F
:10546000FD01E00FF11F228B488150E00AE410E0BB
:105470000E94933CFD01E00FF11FE85AFF4F20818D
:10548000318100E010E02017310709F442C02D2DD2
:105490008D01B801488150E00AE410E00E94933C7D
:1054A000A00FB11FA85ABF4FED91FC918B01099538
:1054B00030C0DD82488150E00AE410E00E94933C55
:1054C000FD01E00FF11F03890295007F00660E8346
:1054D00001E010E020E030E00BC060E0FE01359616
:1054E000A801E40FF51F61830F5F1F4F2F4F3F4F40
:1054F000083040E0140740E0240740E0340768F338
:10550000FE01359609E010E00E94833D2C2D8D01AF
:1055100068DB00E02E96EEE00C949E3D01E0C016A4
:1055200009F005C1F201968180E0F201058110E0E9
:10553000802B912BF2016780AE013C2D2D2D8D012A
:10554000BBDA002381F401E210E020E038E03A9376
:105550002A931A930A93662DAC013C2D2D2D8D01B3
:1055600013D90FEFD7CFAE012C2D8D0183DA002395
:1055700081F001E210E020E038E03A932A931A9398
:105580000A93662DAC013C2D2D2D8D01FDD80FEF1A
:10559000C1CF72E0662DAC013D2D28818D01A0D9CF
:1055A000F201048101FF6CC004E010E0F2012481EB
:1055B0002695269530E023703070021B130B212FA7
:1055C000220F220B322F09831A832B833C8389807D
:1055D0009A80AB80BC80488150E00AE410E00E94D1
:1055E000933CFD01E00FF11F838E948EA58EB68E45
:1055F00008E0400E00E0501E5A924A924B815C81B6
:105600006D817E812A818D0156D8002381F000E0D2
:1056100010E020E038E03A932A931A930A93662D1B
:10562000AC013C2D2D2D8D01AFD80FEF73CF28810C
:105630008D010E94DB20402F412B422B432B61F038
:105640003A932A931A930A93662DAC013C2D2D2D83
:105650008D019AD80FEF5ECF28818D01F0D8ED91A2
:10566000FC91119700810D8300E60E83082F0F83B4
:10567000892F8887698604E010E020E030E045C08B
:10568000F201048100FFEBCFF2010085F2011185E8
:1056900020E030E0F201628570E040E050E0040F6D
:1056A000151F261F371FF2014385742F60E050E05D
:1056B00040E0040F151F261F371F09831A832B8311
:1056C0003C8349815A816B817C812D2D8D016ADA61
:1056D000002329F200E010E020E038E03A932A931A
:1056E0001A930A93662DAC013C2D2D2D8D014CD8BB
:1056F0000FEF10CF60E0FE013596A801E40FF51F13
:1057000061830F5F1F4F2F4F3F4F083040E014075A
:1057100040E0240740E0340768F3FE01359609E0D5
:1057200010E00E94833D2C2D8D015BDAF2CEAE019C
:105730003C2D2D2D8D01C0D9002381F4488150E0EE
:105740000AE410E00E94933CFD01E00FF11F028982
:10575000023011F011E001C010E0012F002391F0A0
:1057600001E210E020E038E03A932A931A930A937A
:1057700060E040E050E03C2D2D2D8D010E94C423BF
:105780000FEFC8CE488150E00AE410E00E94933C3D
:10579000FD01E00FF11FEA5AFF4F008111810F3F19
:1057A0002FEF120709F444C0488150E00AE410E0EA
:1057B0000E94933CFD01E00FF11FEA5AFF4F008168
:1057C00011810E94003B9801488150E00AE410E0FA
:1057D0000E94933CFD01E00FF11FEA5AFF4F208326
:1057E000318300E010E020E030E03A932A931A93EE
:1057F0000A9308E116EF20E030E03A932A931A93D7
:105800000A932EE230E2488550E060E070E08D01BE
:105810000E944C3A9801488150E00AE410E00E944E
:10582000933CFD01E00FF11FEA5AFF4F20833183C3
:10583000488150E00AE410E00E94933CFD01E00F33
:10584000F11F808D918D488150E00AE410E00E94A4
:10585000933CFD01E00FF11F628C488150E00AE4A7
:1058600010E00E94933CFD01E00FF11F0389F2015B
:10587000148114FB10E010F9011789F000E010E02A
:1058800023E035E03A932A931A930A93662DAC01EC
:105890003C2D2D2D8D010E94C4230FEF3BCEAE0178
:1058A0004F5F5F4F28818D0136D909811A812B8185
:1058B0003C81012B022B032B09F04DC0488150E0A5
:1058C0000AE410E00E94933CFD01E00FF11FEA5A48
:1058D000FF4F008111810E94003B9801488150E0F8
:1058E0000AE410E00E94933CFD01E00FF11FEA5A28
:1058F000FF4F2083318321E0488150E00AE410E02B
:105900000E94933CFD01E00FF11F228B488150E083
:105910000AE410E00E94933CFD01E00FF11FE85AF9
:10592000FF4F2081318100E010E02017310789F01E
:105930002D2D8D01B801488150E00AE410E00E944D
:10594000933CA00FB11FA85ABF4FED91FC918B0162
:10595000099500E0DFCD09811A812B813C81083057
:1059600040E0140740E0240740E0340708F448C052
:10597000488150E00AE410E00E94933CFD01E00FF2
:10598000F11F0389002311F421E001C020E04881C8
:1059900050E00AE410E00E94933CFD01E00FF11F8B
:1059A000238BDD82488150E00AE410E00E94933CA2
:1059B000FD01E00FF11F03890295007F0E838E0128
:1059C000095F1F4F1A930A9347E050E060E070E0D0
:1059D0002A818D010E94CE22002309F47DC000E0BF
:1059E00010E020E038E03A932A931A930A93662D48
:1059F000AC013C2D2D2D8D010E94C4230FEF8ACDCB
:105A0000488150E00AE410E00E94933CFD01E00F61
:105A1000F11F0389002311F421E001C020E0488137
:105A200050E00AE410E00E94933CFD01E00FF11FFA
:105A3000238BDD82488150E00AE410E00E94933C11
:105A4000FD01E00FF11F038910E044E00E949B3C40
:105A5000402F57E00981501B550F452B41604E8365
:105A60008E01095F1F4F1A930A934B815C816D81F0
:105A70007E812A818D010E94CE22002389F000E0E0
:105A800010E020E038E03A932A931A930A93662DA7
:105A9000AC013C2D2D2D8D010E94C4230FEF3ACD7A
:105AA00009811A812B813C810F5F1F4F2F4F3F4F80
:105AB0000BC060E0FE013596A801E40FF51F61837D
:105AC0000F5F1F4F2F4F3F4F083040E0140740E05B
:105AD000240740E0340768F3FE01359609E010E042
